{"contracts/RockPaperScissors.sol":{"RockPaperScissors":{"abi":[{"inputs":[{"internalType":"uint40","name":"timeoutSeconds","type":"uint40"},{"internalType":"uint256","name":"minAllowedBet","type":"uint256"},{"internalType":"uint256","name":"maxAllowedBet","type":"uint256"}],"stateMutability":"nonpayable","type":"constructor"},{"inputs":[],"name":"CannotPlayTwice","type":"error"},{"inputs":[],"name":"GameAlreadyClosed","type":"error"},{"inputs":[],"name":"GameNotActive","type":"error"},{"inputs":[],"name":"InvalidBet","type":"error"},{"inputs":[],"name":"InvalidMove","type":"error"},{"inputs":[],"name":"NotParticipant","type":"error"},{"inputs":[],"name":"NothingToWithdraw","type":"error"},{"inputs":[{"internalType":"address","name":"owner","type":"address"}],"name":"OwnableInvalidOwner","type":"error"},{"inputs":[{"internalType":"address","name":"account","type":"address"}],"name":"OwnableUnauthorizedAccount","type":"error"},{"inputs":[],"name":"ReentrancyGuardReentrantCall","type":"error"},{"inputs":[],"name":"StakeMismatch","type":"error"},{"inputs":[],"name":"TooSoon","type":"error"},{"anonymous":false,"inputs":[{"indexed":true,"internalType":"address","name":"recipient","type":"address"},{"indexed":false,"internalType":"uint256","name":"amount","type":"uint256"}],"name":"FeesWithdrawn","type":"event"},{"anonymous":false,"inputs":[{"indexed":true,"internalType":"bytes32","name":"gameId","type":"bytes32"}],"name":"GameCancelled","type":"event"},{"anonymous":false,"inputs":[{"indexed":true,"internalType":"bytes32","name":"gameId","type":"bytes32"},{"indexed":false,"internalType":"enum RockPaperScissors.Move","name":"move","type":"uint8"}],"name":"GameDraw","type":"event"},{"anonymous":false,"inputs":[{"indexed":true,"internalType":"bytes32","name":"gameId","type":"bytes32"},{"indexed":true,"internalType":"address","name":"initiator","type":"address"},{"indexed":false,"internalType":"uint256","name":"stake","type":"uint256"}],"name":"GameOpened","type":"event"},{"anonymous":false,"inputs":[{"indexed":true,"internalType":"bytes32","name":"gameId","type":"bytes32"},{"indexed":true,"internalType":"address","name":"winner","type":"address"},{"indexed":false,"internalType":"enum RockPaperScissors.Move","name":"player1Move","type":"uint8"},{"indexed":false,"internalType":"enum RockPaperScissors.Move","name":"player2Move","type":"uint8"},{"indexed":false,"internalType":"uint256","name":"payout","type":"uint256"},{"indexed":false,"internalType":"uint256","name":"feeAdded","type":"uint256"}],"name":"GameSettled","type":"event"},{"anonymous":false,"inputs":[{"indexed":true,"internalType":"bytes32","name":"gameId","type":"bytes32"}],"name":"GameTimedOut","type":"event"},{"anonymous":false,"inputs":[{"indexed":true,"internalType":"bytes32","name":"gameId","type":"bytes32"},{"indexed":true,"internalType":"address","name":"player","type":"address"},{"indexed":false,"internalType":"enum RockPaperScissors.Move","name":"move","type":"uint8"}],"name":"MoveSubmitted","type":"event"},{"anonymous":false,"inputs":[{"indexed":true,"internalType":"address","name":"previousOwner","type":"address"},{"indexed":true,"internalType":"address","name":"newOwner","type":"address"}],"name":"OwnershipTransferred","type":"event"},{"anonymous":false,"inputs":[{"indexed":false,"internalType":"uint40","name":"newTimeout","type":"uint40"}],"name":"TimeoutUpdated","type":"event"},{"inputs":[],"name":"FEE_BPS","outputs":[{"internalType":"uint256","name":"","type":"uint256"}],"stateMutability":"view","type":"function"},{"inputs":[{"internalType":"bytes32","name":"gameId","type":"bytes32"}],"name":"cancel","outputs":[],"stateMutability":"nonpayable","type":"function"},{"inputs":[{"internalType":"bytes32","name":"gameId","type":"bytes32"}],"name":"claimTimeout","outputs":[],"stateMutability":"nonpayable","type":"function"},{"inputs":[],"name":"defaultTimeout","outputs":[{"internalType":"uint40","name":"","type":"uint40"}],"stateMutability":"view","type":"function"},{"inputs":[],"name":"feePool","outputs":[{"internalType":"uint256","name":"","type":"uint256"}],"stateMutability":"view","type":"function"},{"inputs":[{"internalType":"bytes32","name":"gameId","type":"bytes32"}],"name":"getGame","outputs":[{"components":[{"internalType":"address payable","name":"player1","type":"address"},{"internalType":"address payable","name":"player2","type":"address"},{"internalType":"uint96","name":"betAmount","type":"uint96"},{"internalType":"enum RockPaperScissors.Move","name":"player1Move","type":"uint8"},{"internalType":"enum RockPaperScissors.Move","name":"player2Move","type":"uint8"},{"internalType":"enum RockPaperScissors.Status","name":"status","type":"uint8"},{"internalType":"uint40","name":"createdAt","type":"uint40"},{"internalType":"uint40","name":"expiresAt","type":"uint40"}],"internalType":"struct RockPaperScissors.Game","name":"","type":"tuple"}],"stateMutability":"view","type":"function"},{"inputs":[],"name":"maxBet","outputs":[{"internalType":"uint256","name":"","type":"uint256"}],"stateMutability":"view","type":"function"},{"inputs":[],"name":"minBet","outputs":[{"internalType":"uint256","name":"","type":"uint256"}],"stateMutability":"view","type":"function"},{"inputs":[],"name":"owner","outputs":[{"internalType":"address","name":"","type":"address"}],"stateMutability":"view","type":"function"},{"inputs":[],"name":"renounceOwnership","outputs":[],"stateMutability":"nonpayable","type":"function"},{"inputs":[{"internalType":"uint40","name":"newTimeout","type":"uint40"}],"name":"setDefaultTimeout","outputs":[],"stateMutability":"nonpayable","type":"function"},{"inputs":[{"internalType":"bytes32","name":"gameId","type":"bytes32"},{"internalType":"enum RockPaperScissors.Move","name":"move","type":"uint8"}],"name":"submitMove","outputs":[],"stateMutability":"payable","type":"function"},{"inputs":[{"internalType":"address","name":"newOwner","type":"address"}],"name":"transferOwnership","outputs":[],"stateMutability":"nonpayable","type":"function"},{"inputs":[{"internalType":"address payable","name":"recipient","type":"address"},{"internalType":"uint256","name":"amount","type":"uint256"}],"name":"withdrawFees","outputs":[],"stateMutability":"nonpayable","type":"function"}],"evm":{"bytecode":{"linkReferences":{},"object":"60c06040523480156200001157600080fd5b506040516200155a3803806200155a833981016040819052620000349162000183565b600160005533806200006157604051631e4fbdf760e01b8152600060048201526024015b60405180910390fd5b6200006c8162000131565b50603c8364ffffffffff161015620000b95760405162461bcd60e51b815260206004820152600f60248201526e74696d656f757420746f6f206c6f7760881b604482015260640162000058565b600082118015620000ca5750818110155b620001085760405162461bcd60e51b815260206004820152600d60248201526c626164206265742072616e676560981b604482015260640162000058565b6004805464ffffffffff191664ffffffffff949094169390931790925560805260a052620001c6565b600180546001600160a01b038381166001600160a01b0319831681179093556040519116919082907f8be0079c531659141344cd1fd0a4f28419497f9722a3daafe3b4186f6b6457e090600090a35050565b6000806000606084860312156200019957600080fd5b835164ffffffffff81168114620001af57600080fd5b602085015160409095015190969495509392505050565b60805160a051611360620001fa6000396000818161012d0152610af90152600081816101ee0152610ad001526113606000f3fe6080604052600436106100dd5760003560e01c8063aaa5a02a1161007f578063bf333f2c11610059578063bf333f2c14610266578063c4d252f51461027c578063f10565351461029c578063f2fde38b146102bc57600080fd5b8063aaa5a02a14610210578063ad3b1b4714610230578063ae2e933b1461025057600080fd5b8063715018a6116100bb578063715018a61461017257806373931bbf146101875780638da5cb5b146101b45780639619367d146101dc57600080fd5b806309f3f566146100e25780632e5b21681461011b5780633a302eed1461015d575b600080fd5b3480156100ee57600080fd5b506004546101009064ffffffffff1681565b60405164ffffffffff90911681526020015b60405180910390f35b34801561012757600080fd5b5061014f7f000000000000000000000000000000000000000000000000000000000000000081565b604051908152602001610112565b61017061016b3660046110c8565b6102dc565b005b34801561017e57600080fd5b506101706104fc565b34801561019357600080fd5b506101a76101a23660046110fc565b610510565b604051610112919061113f565b3480156101c057600080fd5b506001546040516001600160a01b039091168152602001610112565b3480156101e857600080fd5b5061014f7f000000000000000000000000000000000000000000000000000000000000000081565b34801561021c57600080fd5b5061017061022b3660046110fc565b61067e565b34801561023c57600080fd5b5061017061024b366004611203565b6107f9565b34801561025c57600080fd5b5061014f60055481565b34801561027257600080fd5b5061014f6101f481565b34801561028857600080fd5b506101706102973660046110fc565b610896565b3480156102a857600080fd5b506101706102b736600461122f565b6109c2565b3480156102c857600080fd5b506101706102d736600461125d565b610a69565b6102e4610aa4565b60008160038111156102f8576102f8611115565b03610316576040516321e08b4d60e21b815260040160405180910390fd5b60008281526003602052604090205460ff16156103465760405163328f1e2560e01b815260040160405180910390fd5b600082815260026020526040812090600282015462010000900460ff16600581111561037457610374611115565b0361038a57610384818484610ace565b506104ee565b6001600282015462010000900460ff1660058111156103ab576103ab611115565b146103c85760405162a3097160e01b815260040160405180910390fd5b6002810154600160401b900464ffffffffff164211156103fa5760405162a3097160e01b815260040160405180910390fd5b80546001600160a01b0316330361042457604051630770a8cf60e41b815260040160405180910390fd5b6001810154600160a01b90046001600160601b0316341461045857604051634581e82760e01b815260040160405180910390fd5b6001810180546001600160a01b0319163317905560028101805483919061ff00191661010083600381111561048f5761048f611115565b021790555060028101805462ff0000191662020000179055604051339084907fd8fede4ccca2e3cdb1f9a3b67ce8ae79939e1e150c7491259d9be702158e2c63906104db90869061127a565b60405180910390a36104ec83610c7e565b505b6104f86001600055565b5050565b610504610ec3565b61050e6000610ef0565b565b61055860408051610100810182526000808252602082018190529181018290529060608201908152602001600081526020016000815260006020820181905260409091015290565b60008281526002602081815260409283902083516101008101855281546001600160a01b039081168252600183015490811693820193909352600160a01b9092046001600160601b03169382019390935290820154909190606083019060ff1660038111156105c9576105c9611115565b60038111156105da576105da611115565b81526020016002820160019054906101000a900460ff16600381111561060257610602611115565b600381111561061357610613611115565b81526020016002820160029054906101000a900460ff16600581111561063b5761063b611115565b600581111561064c5761064c611115565b81526002919091015464ffffffffff6301000000820481166020840152600160401b9091041660409091015292915050565b610686610aa4565b60008181526002602052604090206001600282015462010000900460ff1660058111156106b5576106b5611115565b146106d25760405162a3097160e01b815260040160405180910390fd5b6002810154600160401b900464ffffffffff1642101561070557604051636fed7d8560e01b815260040160405180910390fd5b80546001600160a01b0316331480159061072a57506001546001600160a01b03163314155b156107485760405163721c7c6760e11b815260040160405180910390fd5b6001818101546000848152600360209081526040808320805460ff191686179055600291829052822080546001600160a01b0319168155938401919091559190910180546001600160681b03191690558154600160a01b9091046001600160601b0316906107bf906001600160a01b031682610f42565b60405183907f450cd9350d7c4cb82f24fa032b768c8306f4418dbbd706f9c4ece9a62d9351b190600090a250506107f66001600055565b50565b610801610ec3565b80158061080f575060055481115b1561082d57604051630686827b60e51b815260040160405180910390fd5b806005600082825461083f919061129e565b9091555061084f90508282610f42565b816001600160a01b03167fc0819c13be868895eb93e40eaceb96de976442fa1d404e5c55f14bb65a8c489a8260405161088a91815260200190565b60405180910390a25050565b61089e610aa4565b60008181526002602052604090206001600282015462010000900460ff1660058111156108cd576108cd611115565b146108ea5760405162a3097160e01b815260040160405180910390fd5b80546001600160a01b031633146109145760405163721c7c6760e11b815260040160405180910390fd5b6001818101546000848152600360209081526040808320805460ff191686179055600291829052822080546001600160a01b0319168155938401919091559190910180546001600160681b03191690558154600160a01b9091046001600160601b03169061098b906001600160a01b031682610f42565b60405183907f730d9f4e127b4c1c5d999194f79025fe149736fbb95b0755b18ed20ddd01b4e090600090a250506107f66001600055565b6109ca610ec3565b603c8164ffffffffff161015610a195760405162461bcd60e51b815260206004820152600f60248201526e6d696e2074696d656f75742036307360881b60448201526064015b60405180910390fd5b6004805464ffffffffff191664ffffffffff83169081179091556040519081527ff34cdb98b450507137f731fb6895cc650df9ee98c842542572534502fd69586b9060200160405180910390a150565b610a71610ec3565b6001600160a01b038116610a9b57604051631e4fbdf760e01b815260006004820152602401610a10565b6107f681610ef0565b600260005403610ac757604051633ee5aeb560e01b815260040160405180910390fd5b6002600055565b7f0000000000000000000000000000000000000000000000000000000000000000341080610b1b57507f000000000000000000000000000000000000000000000000000000000000000034115b15610b395760405163aa82224960e01b815260040160405180910390fd5b8254336001600160a01b0319909116178355600180840180546001600160a01b0316600160a01b346001600160601b031602179055600284018054839260ff1990911690836003811115610b8f57610b8f611115565b021790555060028301805467ffffffffffff0000191663010000004264ffffffffff81811692909202929092176201000017909255600454610bd29216906112b1565b60028401805464ffffffffff92909216600160401b026cffffffffff000000000000000019909216919091179055604051348152339083907f73641520b1febc7560b94675a894c17ff6f36519b6854414aa107e0e6b6b3f4f9060200160405180910390a3336001600160a01b0316827fd8fede4ccca2e3cdb1f9a3b67ce8ae79939e1e150c7491259d9be702158e2c6383604051610c71919061127a565b60405180910390a3505050565b6000818152600260208190526040822090810154909190610caa9060ff80821691610100900416610fdc565b90506000808260ff16600003610d535783546001850154610ce4916001600160a01b031690600160a01b90046001600160601b0316610f42565b6001840154610d0d906001600160a01b03811690600160a01b90046001600160601b0316610f42565b600284015460405186917f2179ae4a63a742cd2c9b662bd618a6bd1d08cd8acd0294b101ef74f1fc22894c91610d469160ff169061127a565b60405180910390a2610e71565b60008360ff16600114610d735760018501546001600160a01b0316610d7f565b84546001600160a01b03165b600186015490915060009061271090610dab906101f490600160a01b90046001600160601b03166112c4565b610db591906112db565b9050610dc28160026112c4565b60018701549094508490610de790600160a01b90046001600160601b031660026112c4565b610df1919061129e565b92508360056000828254610e0591906112b1565b90915550610e1590508284610f42565b60028601546040516001600160a01b0384169189917f7fad422cff947404e62ff5123f583c3912397ccba156d70b155a4f6a16c4be5991610e669160ff808316926101009004169089908b906112fd565b60405180910390a350505b505050600091825250600360209081526040808320805460ff1916600190811790915560029283905290832080546001600160a01b0319168155908101929092550180546001600160681b0319169055565b6001546001600160a01b0316331461050e5760405163118cdaa760e01b8152336004820152602401610a10565b600180546001600160a01b038381166001600160a01b0319831681179093556040519116919082907f8be0079c531659141344cd1fd0a4f28419497f9722a3daafe3b4186f6b6457e090600090a35050565b6000826001600160a01b03168260405160006040518083038185875af1925050503d8060008114610f8f576040519150601f19603f3d011682016040523d82523d6000602084013e610f94565b606091505b5050905080610fd75760405162461bcd60e51b815260206004820152600f60248201526e1d1c985b9cd9995c8819985a5b1959608a1b6044820152606401610a10565b505050565b6000816003811115610ff057610ff0611115565b83600381111561100257611002611115565b0361100f575060006110c2565b600183600381111561102357611023611115565b1480156110415750600382600381111561103f5761103f611115565b145b806110795750600383600381111561105b5761105b611115565b1480156110795750600282600381111561107757611077611115565b145b806110b15750600283600381111561109357611093611115565b1480156110b1575060018260038111156110af576110af611115565b145b156110be575060016110c2565b5060025b92915050565b600080604083850312156110db57600080fd5b823591506020830135600481106110f157600080fd5b809150509250929050565b60006020828403121561110e57600080fd5b5035919050565b634e487b7160e01b600052602160045260246000fd5b6004811061113b5761113b611115565b9052565b81516001600160a01b039081168252602080840151909116908201526040808301516001600160601b0316908201526060808301516101008301916111869084018261112b565b506080830151611199608084018261112b565b5060a0830151600681106111af576111af611115565b8060a08401525060c08301516111ce60c084018264ffffffffff169052565b5060e08301516111e760e084018264ffffffffff169052565b5092915050565b6001600160a01b03811681146107f657600080fd5b6000806040838503121561121657600080fd5b8235611221816111ee565b946020939093013593505050565b60006020828403121561124157600080fd5b813564ffffffffff8116811461125657600080fd5b9392505050565b60006020828403121561126f57600080fd5b8135611256816111ee565b602081016110c2828461112b565b634e487b7160e01b600052601160045260246000fd5b818103818111156110c2576110c2611288565b808201808211156110c2576110c2611288565b80820281158282048414176110c2576110c2611288565b6000826112f857634e487b7160e01b600052601260045260246000fd5b500490565b6080810161130b828761112b565b611318602083018661112b565b6040820193909352606001529291505056fea26469706673582212202e79832a08bcdaf1f3ea380f4997743e26c2d21a038f7e49f5f6ef111879069564736f6c63430008180033","opcodes":"PUSH1 0xC0 PUSH1 0x40 MSTORE CALLVALUE DUP1 ISZERO PUSH3 0x11 JUMPI PUSH1 0x0 DUP1 REVERT JUMPDEST POP PUSH1 0x40 MLOAD PUSH3 0x155A CODESIZE SUB DUP1 PUSH3 0x155A DUP4 CODECOPY DUP2 ADD PUSH1 0x40 DUP2 SWAP1 MSTORE PUSH3 0x34 SWAP2 PUSH3 0x183 JUMP JUMPDEST PUSH1 0x1 PUSH1 0x0 SSTORE CALLER DUP1 PUSH3 0x61 JUMPI PUSH1 0x40 MLOAD PUSH4 0x1E4FBDF7 PUSH1 0xE0 SHL DUP2 MSTORE PUSH1 0x0 PUSH1 0x4 DUP3 ADD MSTORE PUSH1 0x24 ADD JUMPDEST PUSH1 0x40 MLOAD DUP1 SWAP2 SUB SWAP1 REVERT JUMPDEST PUSH3 0x6C DUP2 PUSH3 0x131 JUMP JUMPDEST POP PUSH1 0x3C DUP4 PUSH5 0xFFFFFFFFFF AND LT ISZERO PUSH3 0xB9 JUMPI PUSH1 0x40 MLOAD PUSH3 0x461BCD PUSH1 0xE5 SHL DUP2 MSTORE PUSH1 0x20 PUSH1 0x4 DUP3 ADD MSTORE PUSH1 0xF PUSH1 0x24 DUP3 ADD MSTORE PUSH15 0x74696D656F757420746F6F206C6F77 PUSH1 0x88 SHL PUSH1 0x44 DUP3 ADD MSTORE PUSH1 0x64 ADD PUSH3 0x58 JUMP JUMPDEST PUSH1 0x0 DUP3 GT DUP1 ISZERO PUSH3 0xCA JUMPI POP DUP2 DUP2 LT ISZERO JUMPDEST PUSH3 0x108 JUMPI PUSH1 0x40 MLOAD PUSH3 0x461BCD PUSH1 0xE5 SHL DUP2 MSTORE PUSH1 0x20 PUSH1 0x4 DUP3 ADD MSTORE PUSH1 0xD PUSH1 0x24 DUP3 ADD MSTORE PUSH13 0x626164206265742072616E6765 PUSH1 0x98 SHL PUSH1 0x44 DUP3 ADD MSTORE PUSH1 0x64 ADD PUSH3 0x58 JUMP JUMPDEST PUSH1 0x4 DUP1 SLOAD PUSH5 0xFFFFFFFFFF NOT AND PUSH5 0xFFFFFFFFFF SWAP5 SWAP1 SWAP5 AND SWAP4 SWAP1 SWAP4 OR SWAP1 SWAP3 SSTORE PUSH1 0x80 MSTORE PUSH1 0xA0 MSTORE PUSH3 0x1C6 JUMP JUMPDEST PUSH1 0x1 DUP1 SLOAD PUSH1 0x1 PUSH1 0x1 PUSH1 0xA0 SHL SUB DUP4 DUP2 AND PUSH1 0x1 PUSH1 0x1 PUSH1 0xA0 SHL SUB NOT DUP4 AND DUP2 OR SWAP1 SWAP4 SSTORE PUSH1 0x40 MLOAD SWAP2 AND SWAP2 SWAP1 DUP3 SWAP1 PUSH32 0x8BE0079C531659141344CD1FD0A4F28419497F9722A3DAAFE3B4186F6B6457E0 SWAP1 PUSH1 0x0 SWAP1 LOG3 POP POP JUMP JUMPDEST PUSH1 0x0 DUP1 PUSH1 0x0 PUSH1 0x60 DUP5 DUP7 SUB SLT ISZERO PUSH3 0x199 JUMPI PUSH1 0x0 DUP1 REVERT JUMPDEST DUP4 MLOAD PUSH5 0xFFFFFFFFFF DUP2 AND DUP2 EQ PUSH3 0x1AF JUMPI PUSH1 0x0 DUP1 REVERT JUMPDEST PUSH1 0x20 DUP6 ADD MLOAD PUSH1 0x40 SWAP1 SWAP6 ADD MLOAD SWAP1 SWAP7 SWAP5 SWAP6 POP SWAP4 SWAP3 POP POP POP JUMP JUMPDEST PUSH1 0x80 MLOAD PUSH1 0xA0 MLOAD PUSH2 0x1360 PUSH3 0x1FA PUSH1 0x0 CODECOPY PUSH1 0x0 DUP2 DUP2 PUSH2 0x12D ADD MSTORE PUSH2 0xAF9 ADD MSTORE PUSH1 0x0 DUP2 DUP2 PUSH2 0x1EE ADD MSTORE PUSH2 0xAD0 ADD MSTORE PUSH2 0x1360 PUSH1 0x0 RETURN INVALID PUSH1 0x80 PUSH1 0x40 MSTORE PUSH1 0x4 CALLDATASIZE LT PUSH2 0xDD JUMPI PUSH1 0x0 CALLDATALOAD PUSH1 0xE0 SHR DUP1 PUSH4 0xAAA5A02A GT PUSH2 0x7F JUMPI DUP1 PUSH4 0xBF333F2C GT PUSH2 0x59 JUMPI DUP1 PUSH4 0xBF333F2C EQ PUSH2 0x266 JUMPI DUP1 PUSH4 0xC4D252F5 EQ PUSH2 0x27C JUMPI DUP1 PUSH4 0xF1056535 EQ PUSH2 0x29C JUMPI DUP1 PUSH4 0xF2FDE38B EQ PUSH2 0x2BC JUMPI PUSH1 0x0 DUP1 REVERT JUMPDEST DUP1 PUSH4 0xAAA5A02A EQ PUSH2 0x210 JUMPI DUP1 PUSH4 0xAD3B1B47 EQ PUSH2 0x230 JUMPI DUP1 PUSH4 0xAE2E933B EQ PUSH2 0x250 JUMPI PUSH1 0x0 DUP1 REVERT JUMPDEST DUP1 PUSH4 0x715018A6 GT PUSH2 0xBB JUMPI DUP1 PUSH4 0x715018A6 EQ PUSH2 0x172 JUMPI DUP1 PUSH4 0x73931BBF EQ PUSH2 0x187 JUMPI DUP1 PUSH4 0x8DA5CB5B EQ PUSH2 0x1B4 JUMPI DUP1 PUSH4 0x9619367D EQ PUSH2 0x1DC JUMPI PUSH1 0x0 DUP1 REVERT JUMPDEST DUP1 PUSH4 0x9F3F566 EQ PUSH2 0xE2 JUMPI DUP1 PUSH4 0x2E5B2168 EQ PUSH2 0x11B JUMPI DUP1 PUSH4 0x3A302EED EQ PUSH2 0x15D JUMPI JUMPDEST PUSH1 0x0 DUP1 REVERT JUMPDEST CALLVALUE DUP1 ISZERO PUSH2 0xEE JUMPI PUSH1 0x0 DUP1 REVERT JUMPDEST POP PUSH1 0x4 SLOAD PUSH2 0x100 SWAP1 PUSH5 0xFFFFFFFFFF AND DUP2 JUMP JUMPDEST PUSH1 0x40 MLOAD PUSH5 0xFFFFFFFFFF SWAP1 SWAP2 AND DUP2 MSTORE PUSH1 0x20 ADD JUMPDEST PUSH1 0x40 MLOAD DUP1 SWAP2 SUB SWAP1 RETURN JUMPDEST CALLVALUE DUP1 ISZERO PUSH2 0x127 JUMPI PUSH1 0x0 DUP1 REVERT JUMPDEST POP PUSH2 0x14F PUSH32 0x0 DUP2 JUMP JUMPDEST PUSH1 0x40 MLOAD SWAP1 DUP2 MSTORE PUSH1 0x20 ADD PUSH2 0x112 JUMP JUMPDEST PUSH2 0x170 PUSH2 0x16B CALLDATASIZE PUSH1 0x4 PUSH2 0x10C8 JUMP JUMPDEST PUSH2 0x2DC JUMP JUMPDEST STOP JUMPDEST CALLVALUE DUP1 ISZERO PUSH2 0x17E JUMPI PUSH1 0x0 DUP1 REVERT JUMPDEST POP PUSH2 0x170 PUSH2 0x4FC JUMP JUMPDEST CALLVALUE DUP1 ISZERO PUSH2 0x193 JUMPI PUSH1 0x0 DUP1 REVERT JUMPDEST POP PUSH2 0x1A7 PUSH2 0x1A2 CALLDATASIZE PUSH1 0x4 PUSH2 0x10FC JUMP JUMPDEST PUSH2 0x510 JUMP JUMPDEST PUSH1 0x40 MLOAD PUSH2 0x112 SWAP2 SWAP1 PUSH2 0x113F JUMP JUMPDEST CALLVALUE DUP1 ISZERO PUSH2 0x1C0 JUMPI PUSH1 0x0 DUP1 REVERT JUMPDEST POP PUSH1 0x1 SLOAD PUSH1 0x40 MLOAD PUSH1 0x1 PUSH1 0x1 PUSH1 0xA0 SHL SUB SWAP1 SWAP2 AND DUP2 MSTORE PUSH1 0x20 ADD PUSH2 0x112 JUMP JUMPDEST CALLVALUE DUP1 ISZERO PUSH2 0x1E8 JUMPI PUSH1 0x0 DUP1 REVERT JUMPDEST POP PUSH2 0x14F PUSH32 0x0 DUP2 JUMP JUMPDEST CALLVALUE DUP1 ISZERO PUSH2 0x21C JUMPI PUSH1 0x0 DUP1 REVERT JUMPDEST POP PUSH2 0x170 PUSH2 0x22B CALLDATASIZE PUSH1 0x4 PUSH2 0x10FC JUMP JUMPDEST PUSH2 0x67E JUMP JUMPDEST CALLVALUE DUP1 ISZERO PUSH2 0x23C JUMPI PUSH1 0x0 DUP1 REVERT JUMPDEST POP PUSH2 0x170 PUSH2 0x24B CALLDATASIZE PUSH1 0x4 PUSH2 0x1203 JUMP JUMPDEST PUSH2 0x7F9 JUMP JUMPDEST CALLVALUE DUP1 ISZERO PUSH2 0x25C JUMPI PUSH1 0x0 DUP1 REVERT JUMPDEST POP PUSH2 0x14F PUSH1 0x5 SLOAD DUP2 JUMP JUMPDEST CALLVALUE DUP1 ISZERO PUSH2 0x272 JUMPI PUSH1 0x0 DUP1 REVERT JUMPDEST POP PUSH2 0x14F PUSH2 0x1F4 DUP2 JUMP JUMPDEST CALLVALUE DUP1 ISZERO PUSH2 0x288 JUMPI PUSH1 0x0 DUP1 REVERT JUMPDEST POP PUSH2 0x170 PUSH2 0x297 CALLDATASIZE PUSH1 0x4 PUSH2 0x10FC JUMP JUMPDEST PUSH2 0x896 JUMP JUMPDEST CALLVALUE DUP1 ISZERO PUSH2 0x2A8 JUMPI PUSH1 0x0 DUP1 REVERT JUMPDEST POP PUSH2 0x170 PUSH2 0x2B7 CALLDATASIZE PUSH1 0x4 PUSH2 0x122F JUMP JUMPDEST PUSH2 0x9C2 JUMP JUMPDEST CALLVALUE DUP1 ISZERO PUSH2 0x2C8 JUMPI PUSH1 0x0 DUP1 REVERT JUMPDEST POP PUSH2 0x170 PUSH2 0x2D7 CALLDATASIZE PUSH1 0x4 PUSH2 0x125D JUMP JUMPDEST PUSH2 0xA69 JUMP JUMPDEST PUSH2 0x2E4 PUSH2 0xAA4 JUMP JUMPDEST PUSH1 0x0 DUP2 PUSH1 0x3 DUP2 GT ISZERO PUSH2 0x2F8 JUMPI PUSH2 0x2F8 PUSH2 0x1115 JUMP JUMPDEST SUB PUSH2 0x316 JUMPI PUSH1 0x40 MLOAD PUSH4 0x21E08B4D PUSH1 0xE2 SHL DUP2 MSTORE PUSH1 0x4 ADD PUSH1 0x40 MLOAD DUP1 SWAP2 SUB SWAP1 REVERT JUMPDEST PUSH1 0x0 DUP3 DUP2 MSTORE PUSH1 0x3 PUSH1 0x20 MSTORE PUSH1 0x40 SWAP1 KECCAK256 SLOAD PUSH1 0xFF AND ISZERO PUSH2 0x346 JUMPI PUSH1 0x40 MLOAD PUSH4 0x328F1E25 PUSH1 0xE0 SHL DUP2 MSTORE PUSH1 0x4 ADD PUSH1 0x40 MLOAD DUP1 SWAP2 SUB SWAP1 REVERT JUMPDEST PUSH1 0x0 DUP3 DUP2 MSTORE PUSH1 0x2 PUSH1 0x20 MSTORE PUSH1 0x40 DUP2 KECCAK256 SWAP1 PUSH1 0x2 DUP3 ADD SLOAD PUSH3 0x10000 SWAP1 DIV PUSH1 0xFF AND PUSH1 0x5 DUP2 GT ISZERO PUSH2 0x374 JUMPI PUSH2 0x374 PUSH2 0x1115 JUMP JUMPDEST SUB PUSH2 0x38A JUMPI PUSH2 0x384 DUP2 DUP5 DUP5 PUSH2 0xACE JUMP JUMPDEST POP PUSH2 0x4EE JUMP JUMPDEST PUSH1 0x1 PUSH1 0x2 DUP3 ADD SLOAD PUSH3 0x10000 SWAP1 DIV PUSH1 0xFF AND PUSH1 0x5 DUP2 GT ISZERO PUSH2 0x3AB JUMPI PUSH2 0x3AB PUSH2 0x1115 JUMP JUMPDEST EQ PUSH2 0x3C8 JUMPI PUSH1 0x40 MLOAD PUSH3 0xA30971 PUSH1 0xE0 SHL DUP2 MSTORE PUSH1 0x4 ADD PUSH1 0x40 MLOAD DUP1 SWAP2 SUB SWAP1 REVERT JUMPDEST PUSH1 0x2 DUP2 ADD SLOAD PUSH1 0x1 PUSH1 0x40 SHL SWAP1 DIV PUSH5 0xFFFFFFFFFF AND TIMESTAMP GT ISZERO PUSH2 0x3FA JUMPI PUSH1 0x40 MLOAD PUSH3 0xA30971 PUSH1 0xE0 SHL DUP2 MSTORE PUSH1 0x4 ADD PUSH1 0x40 MLOAD DUP1 SWAP2 SUB SWAP1 REVERT JUMPDEST DUP1 SLOAD PUSH1 0x1 PUSH1 0x1 PUSH1 0xA0 SHL SUB AND CALLER SUB PUSH2 0x424 JUMPI PUSH1 0x40 MLOAD PUSH4 0x770A8CF PUSH1 0xE4 SHL DUP2 MSTORE PUSH1 0x4 ADD PUSH1 0x40 MLOAD DUP1 SWAP2 SUB SWAP1 REVERT JUMPDEST PUSH1 0x1 DUP2 ADD SLOAD PUSH1 0x1 PUSH1 0xA0 SHL SWAP1 DIV PUSH1 0x1 PUSH1 0x1 PUSH1 0x60 SHL SUB AND CALLVALUE EQ PUSH2 0x458 JUMPI PUSH1 0x40 MLOAD PUSH4 0x4581E827 PUSH1 0xE0 SHL DUP2 MSTORE PUSH1 0x4 ADD PUSH1 0x40 MLOAD DUP1 SWAP2 SUB SWAP1 REVERT JUMPDEST PUSH1 0x1 DUP2 ADD DUP1 SLOAD PUSH1 0x1 PUSH1 0x1 PUSH1 0xA0 SHL SUB NOT AND CALLER OR SWAP1 SSTORE PUSH1 0x2 DUP2 ADD DUP1 SLOAD DUP4 SWAP2 SWAP1 PUSH2 0xFF00 NOT AND PUSH2 0x100 DUP4 PUSH1 0x3 DUP2 GT ISZERO PUSH2 0x48F JUMPI PUSH2 0x48F PUSH2 0x1115 JUMP JUMPDEST MUL OR SWAP1 SSTORE POP PUSH1 0x2 DUP2 ADD DUP1 SLOAD PUSH3 0xFF0000 NOT AND PUSH3 0x20000 OR SWAP1 SSTORE PUSH1 0x40 MLOAD CALLER SWAP1 DUP5 SWAP1 PUSH32 0xD8FEDE4CCCA2E3CDB1F9A3B67CE8AE79939E1E150C7491259D9BE702158E2C63 SWAP1 PUSH2 0x4DB SWAP1 DUP7 SWAP1 PUSH2 0x127A JUMP JUMPDEST PUSH1 0x40 MLOAD DUP1 SWAP2 SUB SWAP1 LOG3 PUSH2 0x4EC DUP4 PUSH2 0xC7E JUMP JUMPDEST POP JUMPDEST PUSH2 0x4F8 PUSH1 0x1 PUSH1 0x0 SSTORE JUMP JUMPDEST POP POP JUMP JUMPDEST PUSH2 0x504 PUSH2 0xEC3 JUMP JUMPDEST PUSH2 0x50E PUSH1 0x0 PUSH2 0xEF0 JUMP JUMPDEST JUMP JUMPDEST PUSH2 0x558 PUSH1 0x40 DUP1 MLOAD PUSH2 0x100 DUP2 ADD DUP3 MSTORE PUSH1 0x0 DUP1 DUP3 MSTORE PUSH1 0x20 DUP3 ADD DUP2 SWAP1 MSTORE SWAP2 DUP2 ADD DUP3 SWAP1 MSTORE SWAP1 PUSH1 0x60 DUP3 ADD SWAP1 DUP2 MSTORE PUSH1 0x20 ADD PUSH1 0x0 DUP2 MSTORE PUSH1 0x20 ADD PUSH1 0x0 DUP2 MSTORE PUSH1 0x0 PUSH1 0x20 DUP3 ADD DUP2 SWAP1 MSTORE PUSH1 0x40 SWAP1 SWAP2 ADD MSTORE SWAP1 JUMP JUMPDEST PUSH1 0x0 DUP3 DUP2 MSTORE PUSH1 0x2 PUSH1 0x20 DUP2 DUP2 MSTORE PUSH1 0x40 SWAP3 DUP4 SWAP1 KECCAK256 DUP4 MLOAD PUSH2 0x100 DUP2 ADD DUP6 MSTORE DUP2 SLOAD PUSH1 0x1 PUSH1 0x1 PUSH1 0xA0 SHL SUB SWAP1 DUP2 AND DUP3 MSTORE PUSH1 0x1 DUP4 ADD SLOAD SWAP1 DUP2 AND SWAP4 DUP3 ADD SWAP4 SWAP1 SWAP4 MSTORE PUSH1 0x1 PUSH1 0xA0 SHL SWAP1 SWAP3 DIV PUSH1 0x1 PUSH1 0x1 PUSH1 0x60 SHL SUB AND SWAP4 DUP3 ADD SWAP4 SWAP1 SWAP4 MSTORE SWAP1 DUP3 ADD SLOAD SWAP1 SWAP2 SWAP1 PUSH1 0x60 DUP4 ADD SWAP1 PUSH1 0xFF AND PUSH1 0x3 DUP2 GT ISZERO PUSH2 0x5C9 JUMPI PUSH2 0x5C9 PUSH2 0x1115 JUMP JUMPDEST PUSH1 0x3 DUP2 GT ISZERO PUSH2 0x5DA JUMPI PUSH2 0x5DA PUSH2 0x1115 JUMP JUMPDEST DUP2 MSTORE PUSH1 0x20 ADD PUSH1 0x2 DUP3 ADD PUSH1 0x1 SWAP1 SLOAD SWAP1 PUSH2 0x100 EXP SWAP1 DIV PUSH1 0xFF AND PUSH1 0x3 DUP2 GT ISZERO PUSH2 0x602 JUMPI PUSH2 0x602 PUSH2 0x1115 JUMP JUMPDEST PUSH1 0x3 DUP2 GT ISZERO PUSH2 0x613 JUMPI PUSH2 0x613 PUSH2 0x1115 JUMP JUMPDEST DUP2 MSTORE PUSH1 0x20 ADD PUSH1 0x2 DUP3 ADD PUSH1 0x2 SWAP1 SLOAD SWAP1 PUSH2 0x100 EXP SWAP1 DIV PUSH1 0xFF AND PUSH1 0x5 DUP2 GT ISZERO PUSH2 0x63B JUMPI PUSH2 0x63B PUSH2 0x1115 JUMP JUMPDEST PUSH1 0x5 DUP2 GT ISZERO PUSH2 0x64C JUMPI PUSH2 0x64C PUSH2 0x1115 JUMP JUMPDEST DUP2 MSTORE PUSH1 0x2 SWAP2 SWAP1 SWAP2 ADD SLOAD PUSH5 0xFFFFFFFFFF PUSH4 0x1000000 DUP3 DIV DUP2 AND PUSH1 0x20 DUP5 ADD MSTORE PUSH1 0x1 PUSH1 0x40 SHL SWAP1 SWAP2 DIV AND PUSH1 0x40 SWAP1 SWAP2 ADD MSTORE SWAP3 SWAP2 POP POP JUMP JUMPDEST PUSH2 0x686 PUSH2 0xAA4 JUMP JUMPDEST PUSH1 0x0 DUP2 DUP2 MSTORE PUSH1 0x2 PUSH1 0x20 MSTORE PUSH1 0x40 SWAP1 KECCAK256 PUSH1 0x1 PUSH1 0x2 DUP3 ADD SLOAD PUSH3 0x10000 SWAP1 DIV PUSH1 0xFF AND PUSH1 0x5 DUP2 GT ISZERO PUSH2 0x6B5 JUMPI PUSH2 0x6B5 PUSH2 0x1115 JUMP JUMPDEST EQ PUSH2 0x6D2 JUMPI PUSH1 0x40 MLOAD PUSH3 0xA30971 PUSH1 0xE0 SHL DUP2 MSTORE PUSH1 0x4 ADD PUSH1 0x40 MLOAD DUP1 SWAP2 SUB SWAP1 REVERT JUMPDEST PUSH1 0x2 DUP2 ADD SLOAD PUSH1 0x1 PUSH1 0x40 SHL SWAP1 DIV PUSH5 0xFFFFFFFFFF AND TIMESTAMP LT ISZERO PUSH2 0x705 JUMPI PUSH1 0x40 MLOAD PUSH4 0x6FED7D85 PUSH1 0xE0 SHL DUP2 MSTORE PUSH1 0x4 ADD PUSH1 0x40 MLOAD DUP1 SWAP2 SUB SWAP1 REVERT JUMPDEST DUP1 SLOAD PUSH1 0x1 PUSH1 0x1 PUSH1 0xA0 SHL SUB AND CALLER EQ DUP1 ISZERO SWAP1 PUSH2 0x72A JUMPI POP PUSH1 0x1 SLOAD PUSH1 0x1 PUSH1 0x1 PUSH1 0xA0 SHL SUB AND CALLER EQ ISZERO JUMPDEST ISZERO PUSH2 0x748 JUMPI PUSH1 0x40 MLOAD PUSH4 0x721C7C67 PUSH1 0xE1 SHL DUP2 MSTORE PUSH1 0x4 ADD PUSH1 0x40 MLOAD DUP1 SWAP2 SUB SWAP1 REVERT JUMPDEST PUSH1 0x1 DUP2 DUP2 ADD SLOAD PUSH1 0x0 DUP5 DUP2 MSTORE PUSH1 0x3 PUSH1 0x20 SWAP1 DUP2 MSTORE PUSH1 0x40 DUP1 DUP4 KECCAK256 DUP1 SLOAD PUSH1 0xFF NOT AND DUP7 OR SWAP1 SSTORE PUSH1 0x2 SWAP2 DUP3 SWAP1 MSTORE DUP3 KECCAK256 DUP1 SLOAD PUSH1 0x1 PUSH1 0x1 PUSH1 0xA0 SHL SUB NOT AND DUP2 SSTORE SWAP4 DUP5 ADD SWAP2 SWAP1 SWAP2 SSTORE SWAP2 SWAP1 SWAP2 ADD DUP1 SLOAD PUSH1 0x1 PUSH1 0x1 PUSH1 0x68 SHL SUB NOT AND SWAP1 SSTORE DUP2 SLOAD PUSH1 0x1 PUSH1 0xA0 SHL SWAP1 SWAP2 DIV PUSH1 0x1 PUSH1 0x1 PUSH1 0x60 SHL SUB AND SWAP1 PUSH2 0x7BF SWAP1 PUSH1 0x1 PUSH1 0x1 PUSH1 0xA0 SHL SUB AND DUP3 PUSH2 0xF42 JUMP JUMPDEST PUSH1 0x40 MLOAD DUP4 SWAP1 PUSH32 0x450CD9350D7C4CB82F24FA032B768C8306F4418DBBD706F9C4ECE9A62D9351B1 SWAP1 PUSH1 0x0 SWAP1 LOG2 POP POP PUSH2 0x7F6 PUSH1 0x1 PUSH1 0x0 SSTORE JUMP JUMPDEST POP JUMP JUMPDEST PUSH2 0x801 PUSH2 0xEC3 JUMP JUMPDEST DUP1 ISZERO DUP1 PUSH2 0x80F JUMPI POP PUSH1 0x5 SLOAD DUP2 GT JUMPDEST ISZERO PUSH2 0x82D JUMPI PUSH1 0x40 MLOAD PUSH4 0x686827B PUSH1 0xE5 SHL DUP2 MSTORE PUSH1 0x4 ADD PUSH1 0x40 MLOAD DUP1 SWAP2 SUB SWAP1 REVERT JUMPDEST DUP1 PUSH1 0x5 PUSH1 0x0 DUP3 DUP3 SLOAD PUSH2 0x83F SWAP2 SWAP1 PUSH2 0x129E JUMP JUMPDEST SWAP1 SWAP2 SSTORE POP PUSH2 0x84F SWAP1 POP DUP3 DUP3 PUSH2 0xF42 JUMP JUMPDEST DUP2 PUSH1 0x1 PUSH1 0x1 PUSH1 0xA0 SHL SUB AND PUSH32 0xC0819C13BE868895EB93E40EACEB96DE976442FA1D404E5C55F14BB65A8C489A DUP3 PUSH1 0x40 MLOAD PUSH2 0x88A SWAP2 DUP2 MSTORE PUSH1 0x20 ADD SWAP1 JUMP JUMPDEST PUSH1 0x40 MLOAD DUP1 SWAP2 SUB SWAP1 LOG2 POP POP JUMP JUMPDEST PUSH2 0x89E PUSH2 0xAA4 JUMP JUMPDEST PUSH1 0x0 DUP2 DUP2 MSTORE PUSH1 0x2 PUSH1 0x20 MSTORE PUSH1 0x40 SWAP1 KECCAK256 PUSH1 0x1 PUSH1 0x2 DUP3 ADD SLOAD PUSH3 0x10000 SWAP1 DIV PUSH1 0xFF AND PUSH1 0x5 DUP2 GT ISZERO PUSH2 0x8CD JUMPI PUSH2 0x8CD PUSH2 0x1115 JUMP JUMPDEST EQ PUSH2 0x8EA JUMPI PUSH1 0x40 MLOAD PUSH3 0xA30971 PUSH1 0xE0 SHL DUP2 MSTORE PUSH1 0x4 ADD PUSH1 0x40 MLOAD DUP1 SWAP2 SUB SWAP1 REVERT JUMPDEST DUP1 SLOAD PUSH1 0x1 PUSH1 0x1 PUSH1 0xA0 SHL SUB AND CALLER EQ PUSH2 0x914 JUMPI PUSH1 0x40 MLOAD PUSH4 0x721C7C67 PUSH1 0xE1 SHL DUP2 MSTORE PUSH1 0x4 ADD PUSH1 0x40 MLOAD DUP1 SWAP2 SUB SWAP1 REVERT JUMPDEST PUSH1 0x1 DUP2 DUP2 ADD SLOAD PUSH1 0x0 DUP5 DUP2 MSTORE PUSH1 0x3 PUSH1 0x20 SWAP1 DUP2 MSTORE PUSH1 0x40 DUP1 DUP4 KECCAK256 DUP1 SLOAD PUSH1 0xFF NOT AND DUP7 OR SWAP1 SSTORE PUSH1 0x2 SWAP2 DUP3 SWAP1 MSTORE DUP3 KECCAK256 DUP1 SLOAD PUSH1 0x1 PUSH1 0x1 PUSH1 0xA0 SHL SUB NOT AND DUP2 SSTORE SWAP4 DUP5 ADD SWAP2 SWAP1 SWAP2 SSTORE SWAP2 SWAP1 SWAP2 ADD DUP1 SLOAD PUSH1 0x1 PUSH1 0x1 PUSH1 0x68 SHL SUB NOT AND SWAP1 SSTORE DUP2 SLOAD PUSH1 0x1 PUSH1 0xA0 SHL SWAP1 SWAP2 DIV PUSH1 0x1 PUSH1 0x1 PUSH1 0x60 SHL SUB AND SWAP1 PUSH2 0x98B SWAP1 PUSH1 0x1 PUSH1 0x1 PUSH1 0xA0 SHL SUB AND DUP3 PUSH2 0xF42 JUMP JUMPDEST PUSH1 0x40 MLOAD DUP4 SWAP1 PUSH32 0x730D9F4E127B4C1C5D999194F79025FE149736FBB95B0755B18ED20DDD01B4E0 SWAP1 PUSH1 0x0 SWAP1 LOG2 POP POP PUSH2 0x7F6 PUSH1 0x1 PUSH1 0x0 SSTORE JUMP JUMPDEST PUSH2 0x9CA PUSH2 0xEC3 JUMP JUMPDEST PUSH1 0x3C DUP2 PUSH5 0xFFFFFFFFFF AND LT ISZERO PUSH2 0xA19 JUMPI PUSH1 0x40 MLOAD PUSH3 0x461BCD PUSH1 0xE5 SHL DUP2 MSTORE PUSH1 0x20 PUSH1 0x4 DUP3 ADD MSTORE PUSH1 0xF PUSH1 0x24 DUP3 ADD MSTORE PUSH15 0x6D696E2074696D656F757420363073 PUSH1 0x88 SHL PUSH1 0x44 DUP3 ADD MSTORE PUSH1 0x64 ADD JUMPDEST PUSH1 0x40 MLOAD DUP1 SWAP2 SUB SWAP1 REVERT JUMPDEST PUSH1 0x4 DUP1 SLOAD PUSH5 0xFFFFFFFFFF NOT AND PUSH5 0xFFFFFFFFFF DUP4 AND SWAP1 DUP2 OR SWAP1 SWAP2 SSTORE PUSH1 0x40 MLOAD SWAP1 DUP2 MSTORE PUSH32 0xF34CDB98B450507137F731FB6895CC650DF9EE98C842542572534502FD69586B SWAP1 PUSH1 0x20 ADD PUSH1 0x40 MLOAD DUP1 SWAP2 SUB SWAP1 LOG1 POP JUMP JUMPDEST PUSH2 0xA71 PUSH2 0xEC3 JUMP JUMPDEST PUSH1 0x1 PUSH1 0x1 PUSH1 0xA0 SHL SUB DUP2 AND PUSH2 0xA9B JUMPI PUSH1 0x40 MLOAD PUSH4 0x1E4FBDF7 PUSH1 0xE0 SHL DUP2 MSTORE PUSH1 0x0 PUSH1 0x4 DUP3 ADD MSTORE PUSH1 0x24 ADD PUSH2 0xA10 JUMP JUMPDEST PUSH2 0x7F6 DUP2 PUSH2 0xEF0 JUMP JUMPDEST PUSH1 0x2 PUSH1 0x0 SLOAD SUB PUSH2 0xAC7 JUMPI PUSH1 0x40 MLOAD PUSH4 0x3EE5AEB5 PUSH1 0xE0 SHL DUP2 MSTORE PUSH1 0x4 ADD PUSH1 0x40 MLOAD DUP1 SWAP2 SUB SWAP1 REVERT JUMPDEST PUSH1 0x2 PUSH1 0x0 SSTORE JUMP JUMPDEST PUSH32 0x0 CALLVALUE LT DUP1 PUSH2 0xB1B JUMPI POP PUSH32 0x0 CALLVALUE GT JUMPDEST ISZERO PUSH2 0xB39 JUMPI PUSH1 0x40 MLOAD PUSH4 0xAA822249 PUSH1 0xE0 SHL DUP2 MSTORE PUSH1 0x4 ADD PUSH1 0x40 MLOAD DUP1 SWAP2 SUB SWAP1 REVERT JUMPDEST DUP3 SLOAD CALLER PUSH1 0x1 PUSH1 0x1 PUSH1 0xA0 SHL SUB NOT SWAP1 SWAP2 AND OR DUP4 SSTORE PUSH1 0x1 DUP1 DUP5 ADD DUP1 SLOAD PUSH1 0x1 PUSH1 0x1 PUSH1 0xA0 SHL SUB AND PUSH1 0x1 PUSH1 0xA0 SHL CALLVALUE PUSH1 0x1 PUSH1 0x1 PUSH1 0x60 SHL SUB AND MUL OR SWAP1 SSTORE PUSH1 0x2 DUP5 ADD DUP1 SLOAD DUP4 SWAP3 PUSH1 0xFF NOT SWAP1 SWAP2 AND SWAP1 DUP4 PUSH1 0x3 DUP2 GT ISZERO PUSH2 0xB8F JUMPI PUSH2 0xB8F PUSH2 0x1115 JUMP JUMPDEST MUL OR SWAP1 SSTORE POP PUSH1 0x2 DUP4 ADD DUP1 SLOAD PUSH8 0xFFFFFFFFFFFF0000 NOT AND PUSH4 0x1000000 TIMESTAMP PUSH5 0xFFFFFFFFFF DUP2 DUP2 AND SWAP3 SWAP1 SWAP3 MUL SWAP3 SWAP1 SWAP3 OR PUSH3 0x10000 OR SWAP1 SWAP3 SSTORE PUSH1 0x4 SLOAD PUSH2 0xBD2 SWAP3 AND SWAP1 PUSH2 0x12B1 JUMP JUMPDEST PUSH1 0x2 DUP5 ADD DUP1 SLOAD PUSH5 0xFFFFFFFFFF SWAP3 SWAP1 SWAP3 AND PUSH1 0x1 PUSH1 0x40 SHL MUL PUSH13 0xFFFFFFFFFF0000000000000000 NOT SWAP1 SWAP3 AND SWAP2 SWAP1 SWAP2 OR SWAP1 SSTORE PUSH1 0x40 MLOAD CALLVALUE DUP2 MSTORE CALLER SWAP1 DUP4 SWAP1 PUSH32 0x73641520B1FEBC7560B94675A894C17FF6F36519B6854414AA107E0E6B6B3F4F SWAP1 PUSH1 0x20 ADD PUSH1 0x40 MLOAD DUP1 SWAP2 SUB SWAP1 LOG3 CALLER PUSH1 0x1 PUSH1 0x1 PUSH1 0xA0 SHL SUB AND DUP3 PUSH32 0xD8FEDE4CCCA2E3CDB1F9A3B67CE8AE79939E1E150C7491259D9BE702158E2C63 DUP4 PUSH1 0x40 MLOAD PUSH2 0xC71 SWAP2 SWAP1 PUSH2 0x127A JUMP JUMPDEST PUSH1 0x40 MLOAD DUP1 SWAP2 SUB SWAP1 LOG3 POP POP POP JUMP JUMPDEST PUSH1 0x0 DUP2 DUP2 MSTORE PUSH1 0x2 PUSH1 0x20 DUP2 SWAP1 MSTORE PUSH1 0x40 DUP3 KECCAK256 SWAP1 DUP2 ADD SLOAD SWAP1 SWAP2 SWAP1 PUSH2 0xCAA SWAP1 PUSH1 0xFF DUP1 DUP3 AND SWAP2 PUSH2 0x100 SWAP1 DIV AND PUSH2 0xFDC JUMP JUMPDEST SWAP1 POP PUSH1 0x0 DUP1 DUP3 PUSH1 0xFF AND PUSH1 0x0 SUB PUSH2 0xD53 JUMPI DUP4 SLOAD PUSH1 0x1 DUP6 ADD SLOAD PUSH2 0xCE4 SWAP2 PUSH1 0x1 PUSH1 0x1 PUSH1 0xA0 SHL SUB AND SWAP1 PUSH1 0x1 PUSH1 0xA0 SHL SWAP1 DIV PUSH1 0x1 PUSH1 0x1 PUSH1 0x60 SHL SUB AND PUSH2 0xF42 JUMP JUMPDEST PUSH1 0x1 DUP5 ADD SLOAD PUSH2 0xD0D SWAP1 PUSH1 0x1 PUSH1 0x1 PUSH1 0xA0 SHL SUB DUP2 AND SWAP1 PUSH1 0x1 PUSH1 0xA0 SHL SWAP1 DIV PUSH1 0x1 PUSH1 0x1 PUSH1 0x60 SHL SUB AND PUSH2 0xF42 JUMP JUMPDEST PUSH1 0x2 DUP5 ADD SLOAD PUSH1 0x40 MLOAD DUP7 SWAP2 PUSH32 0x2179AE4A63A742CD2C9B662BD618A6BD1D08CD8ACD0294B101EF74F1FC22894C SWAP2 PUSH2 0xD46 SWAP2 PUSH1 0xFF AND SWAP1 PUSH2 0x127A JUMP JUMPDEST PUSH1 0x40 MLOAD DUP1 SWAP2 SUB SWAP1 LOG2 PUSH2 0xE71 JUMP JUMPDEST PUSH1 0x0 DUP4 PUSH1 0xFF AND PUSH1 0x1 EQ PUSH2 0xD73 JUMPI PUSH1 0x1 DUP6 ADD SLOAD PUSH1 0x1 PUSH1 0x1 PUSH1 0xA0 SHL SUB AND PUSH2 0xD7F JUMP JUMPDEST DUP5 SLOAD PUSH1 0x1 PUSH1 0x1 PUSH1 0xA0 SHL SUB AND JUMPDEST PUSH1 0x1 DUP7 ADD SLOAD SWAP1 SWAP2 POP PUSH1 0x0 SWAP1 PUSH2 0x2710 SWAP1 PUSH2 0xDAB SWAP1 PUSH2 0x1F4 SWAP1 PUSH1 0x1 PUSH1 0xA0 SHL SWAP1 DIV PUSH1 0x1 PUSH1 0x1 PUSH1 0x60 SHL SUB AND PUSH2 0x12C4 JUMP JUMPDEST PUSH2 0xDB5 SWAP2 SWAP1 PUSH2 0x12DB JUMP JUMPDEST SWAP1 POP PUSH2 0xDC2 DUP2 PUSH1 0x2 PUSH2 0x12C4 JUMP JUMPDEST PUSH1 0x1 DUP8 ADD SLOAD SWAP1 SWAP5 POP DUP5 SWAP1 PUSH2 0xDE7 SWAP1 PUSH1 0x1 PUSH1 0xA0 SHL SWAP1 DIV PUSH1 0x1 PUSH1 0x1 PUSH1 0x60 SHL SUB AND PUSH1 0x2 PUSH2 0x12C4 JUMP JUMPDEST PUSH2 0xDF1 SWAP2 SWAP1 PUSH2 0x129E JUMP JUMPDEST SWAP3 POP DUP4 PUSH1 0x5 PUSH1 0x0 DUP3 DUP3 SLOAD PUSH2 0xE05 SWAP2 SWAP1 PUSH2 0x12B1 JUMP JUMPDEST SWAP1 SWAP2 SSTORE POP PUSH2 0xE15 SWAP1 POP DUP3 DUP5 PUSH2 0xF42 JUMP JUMPDEST PUSH1 0x2 DUP7 ADD SLOAD PUSH1 0x40 MLOAD PUSH1 0x1 PUSH1 0x1 PUSH1 0xA0 SHL SUB DUP5 AND SWAP2 DUP10 SWAP2 PUSH32 0x7FAD422CFF947404E62FF5123F583C3912397CCBA156D70B155A4F6A16C4BE59 SWAP2 PUSH2 0xE66 SWAP2 PUSH1 0xFF DUP1 DUP4 AND SWAP3 PUSH2 0x100 SWAP1 DIV AND SWAP1 DUP10 SWAP1 DUP12 SWAP1 PUSH2 0x12FD JUMP JUMPDEST PUSH1 0x40 MLOAD DUP1 SWAP2 SUB SWAP1 LOG3 POP POP JUMPDEST POP POP POP PUSH1 0x0 SWAP2 DUP3 MSTORE POP PUSH1 0x3 PUSH1 0x20 SWAP1 DUP2 MSTORE PUSH1 0x40 DUP1 DUP4 KECCAK256 DUP1 SLOAD PUSH1 0xFF NOT AND PUSH1 0x1 SWAP1 DUP2 OR SWAP1 SWAP2 SSTORE PUSH1 0x2 SWAP3 DUP4 SWAP1 MSTORE SWAP1 DUP4 KECCAK256 DUP1 SLOAD PUSH1 0x1 PUSH1 0x1 PUSH1 0xA0 SHL SUB NOT AND DUP2 SSTORE SWAP1 DUP2 ADD SWAP3 SWAP1 SWAP3 SSTORE ADD DUP1 SLOAD PUSH1 0x1 PUSH1 0x1 PUSH1 0x68 SHL SUB NOT AND SWAP1 SSTORE JUMP JUMPDEST PUSH1 0x1 SLOAD PUSH1 0x1 PUSH1 0x1 PUSH1 0xA0 SHL SUB AND CALLER EQ PUSH2 0x50E JUMPI PUSH1 0x40 MLOAD PUSH4 0x118CDAA7 PUSH1 0xE0 SHL DUP2 MSTORE CALLER PUSH1 0x4 DUP3 ADD MSTORE PUSH1 0x24 ADD PUSH2 0xA10 JUMP JUMPDEST PUSH1 0x1 DUP1 SLOAD PUSH1 0x1 PUSH1 0x1 PUSH1 0xA0 SHL SUB DUP4 DUP2 AND PUSH1 0x1 PUSH1 0x1 PUSH1 0xA0 SHL SUB NOT DUP4 AND DUP2 OR SWAP1 SWAP4 SSTORE PUSH1 0x40 MLOAD SWAP2 AND SWAP2 SWAP1 DUP3 SWAP1 PUSH32 0x8BE0079C531659141344CD1FD0A4F28419497F9722A3DAAFE3B4186F6B6457E0 SWAP1 PUSH1 0x0 SWAP1 LOG3 POP POP JUMP JUMPDEST PUSH1 0x0 DUP3 PUSH1 0x1 PUSH1 0x1 PUSH1 0xA0 SHL SUB AND DUP3 PUSH1 0x40 MLOAD PUSH1 0x0 PUSH1 0x40 MLOAD DUP1 DUP4 SUB DUP2 DUP6 DUP8 GAS CALL SWAP3 POP POP POP RETURNDATASIZE DUP1 PUSH1 0x0 DUP2 EQ PUSH2 0xF8F JUMPI PUSH1 0x40 MLOAD SWAP2 POP PUSH1 0x1F NOT PUSH1 0x3F RETURNDATASIZE ADD AND DUP3 ADD PUSH1 0x40 MSTORE RETURNDATASIZE DUP3 MSTORE RETURNDATASIZE PUSH1 0x0 PUSH1 0x20 DUP5 ADD RETURNDATACOPY PUSH2 0xF94 JUMP JUMPDEST PUSH1 0x60 SWAP2 POP JUMPDEST POP POP SWAP1 POP DUP1 PUSH2 0xFD7 JUMPI PUSH1 0x40 MLOAD PUSH3 0x461BCD PUSH1 0xE5 SHL DUP2 MSTORE PUSH1 0x20 PUSH1 0x4 DUP3 ADD MSTORE PUSH1 0xF PUSH1 0x24 DUP3 ADD MSTORE PUSH15 0x1D1C985B9CD9995C8819985A5B1959 PUSH1 0x8A SHL PUSH1 0x44 DUP3 ADD MSTORE PUSH1 0x64 ADD PUSH2 0xA10 JUMP JUMPDEST POP POP POP JUMP JUMPDEST PUSH1 0x0 DUP2 PUSH1 0x3 DUP2 GT ISZERO PUSH2 0xFF0 JUMPI PUSH2 0xFF0 PUSH2 0x1115 JUMP JUMPDEST DUP4 PUSH1 0x3 DUP2 GT ISZERO PUSH2 0x1002 JUMPI PUSH2 0x1002 PUSH2 0x1115 JUMP JUMPDEST SUB PUSH2 0x100F JUMPI POP PUSH1 0x0 PUSH2 0x10C2 JUMP JUMPDEST PUSH1 0x1 DUP4 PUSH1 0x3 DUP2 GT ISZERO PUSH2 0x1023 JUMPI PUSH2 0x1023 PUSH2 0x1115 JUMP JUMPDEST EQ DUP1 ISZERO PUSH2 0x1041 JUMPI POP PUSH1 0x3 DUP3 PUSH1 0x3 DUP2 GT ISZERO PUSH2 0x103F JUMPI PUSH2 0x103F PUSH2 0x1115 JUMP JUMPDEST EQ JUMPDEST DUP1 PUSH2 0x1079 JUMPI POP PUSH1 0x3 DUP4 PUSH1 0x3 DUP2 GT ISZERO PUSH2 0x105B JUMPI PUSH2 0x105B PUSH2 0x1115 JUMP JUMPDEST EQ DUP1 ISZERO PUSH2 0x1079 JUMPI POP PUSH1 0x2 DUP3 PUSH1 0x3 DUP2 GT ISZERO PUSH2 0x1077 JUMPI PUSH2 0x1077 PUSH2 0x1115 JUMP JUMPDEST EQ JUMPDEST DUP1 PUSH2 0x10B1 JUMPI POP PUSH1 0x2 DUP4 PUSH1 0x3 DUP2 GT ISZERO PUSH2 0x1093 JUMPI PUSH2 0x1093 PUSH2 0x1115 JUMP JUMPDEST EQ DUP1 ISZERO PUSH2 0x10B1 JUMPI POP PUSH1 0x1 DUP3 PUSH1 0x3 DUP2 GT ISZERO PUSH2 0x10AF JUMPI PUSH2 0x10AF PUSH2 0x1115 JUMP JUMPDEST EQ JUMPDEST ISZERO PUSH2 0x10BE JUMPI POP PUSH1 0x1 PUSH2 0x10C2 JUMP JUMPDEST POP PUSH1 0x2 JUMPDEST SWAP3 SWAP2 POP POP JUMP JUMPDEST PUSH1 0x0 DUP1 PUSH1 0x40 DUP4 DUP6 SUB SLT ISZERO PUSH2 0x10DB JUMPI PUSH1 0x0 DUP1 REVERT JUMPDEST DUP3 CALLDATALOAD SWAP2 POP PUSH1 0x20 DUP4 ADD CALLDATALOAD PUSH1 0x4 DUP2 LT PUSH2 0x10F1 JUMPI PUSH1 0x0 DUP1 REVERT JUMPDEST DUP1 SWAP2 POP POP SWAP3 POP SWAP3 SWAP1 POP JUMP JUMPDEST PUSH1 0x0 PUSH1 0x20 DUP3 DUP5 SUB SLT ISZERO PUSH2 0x110E JUMPI PUSH1 0x0 DUP1 REVERT JUMPDEST POP CALLDATALOAD SWAP2 SWAP1 POP JUMP JUMPDEST PUSH4 0x4E487B71 PUSH1 0xE0 SHL PUSH1 0x0 MSTORE PUSH1 0x21 PUSH1 0x4 MSTORE PUSH1 0x24 PUSH1 0x0 REVERT JUMPDEST PUSH1 0x4 DUP2 LT PUSH2 0x113B JUMPI PUSH2 0x113B PUSH2 0x1115 JUMP JUMPDEST SWAP1 MSTORE JUMP JUMPDEST DUP2 MLOAD PUSH1 0x1 PUSH1 0x1 PUSH1 0xA0 SHL SUB SWAP1 DUP2 AND DUP3 MSTORE PUSH1 0x20 DUP1 DUP5 ADD MLOAD SWAP1 SWAP2 AND SWAP1 DUP3 ADD MSTORE PUSH1 0x40 DUP1 DUP4 ADD MLOAD PUSH1 0x1 PUSH1 0x1 PUSH1 0x60 SHL SUB AND SWAP1 DUP3 ADD MSTORE PUSH1 0x60 DUP1 DUP4 ADD MLOAD PUSH2 0x100 DUP4 ADD SWAP2 PUSH2 0x1186 SWAP1 DUP5 ADD DUP3 PUSH2 0x112B JUMP JUMPDEST POP PUSH1 0x80 DUP4 ADD MLOAD PUSH2 0x1199 PUSH1 0x80 DUP5 ADD DUP3 PUSH2 0x112B JUMP JUMPDEST POP PUSH1 0xA0 DUP4 ADD MLOAD PUSH1 0x6 DUP2 LT PUSH2 0x11AF JUMPI PUSH2 0x11AF PUSH2 0x1115 JUMP JUMPDEST DUP1 PUSH1 0xA0 DUP5 ADD MSTORE POP PUSH1 0xC0 DUP4 ADD MLOAD PUSH2 0x11CE PUSH1 0xC0 DUP5 ADD DUP3 PUSH5 0xFFFFFFFFFF AND SWAP1 MSTORE JUMP JUMPDEST POP PUSH1 0xE0 DUP4 ADD MLOAD PUSH2 0x11E7 PUSH1 0xE0 DUP5 ADD DUP3 PUSH5 0xFFFFFFFFFF AND SWAP1 MSTORE JUMP JUMPDEST POP SWAP3 SWAP2 POP POP JUMP JUMPDEST PUSH1 0x1 PUSH1 0x1 PUSH1 0xA0 SHL SUB DUP2 AND DUP2 EQ PUSH2 0x7F6 JUMPI PUSH1 0x0 DUP1 REVERT JUMPDEST PUSH1 0x0 DUP1 PUSH1 0x40 DUP4 DUP6 SUB SLT ISZERO PUSH2 0x1216 JUMPI PUSH1 0x0 DUP1 REVERT JUMPDEST DUP3 CALLDATALOAD PUSH2 0x1221 DUP2 PUSH2 0x11EE JUMP JUMPDEST SWAP5 PUSH1 0x20 SWAP4 SWAP1 SWAP4 ADD CALLDATALOAD SWAP4 POP POP POP JUMP JUMPDEST PUSH1 0x0 PUSH1 0x20 DUP3 DUP5 SUB SLT ISZERO PUSH2 0x1241 JUMPI PUSH1 0x0 DUP1 REVERT JUMPDEST DUP2 CALLDATALOAD PUSH5 0xFFFFFFFFFF DUP2 AND DUP2 EQ PUSH2 0x1256 JUMPI PUSH1 0x0 DUP1 REVERT JUMPDEST SWAP4 SWAP3 POP POP POP JUMP JUMPDEST PUSH1 0x0 PUSH1 0x20 DUP3 DUP5 SUB SLT ISZERO PUSH2 0x126F JUMPI PUSH1 0x0 DUP1 REVERT JUMPDEST DUP2 CALLDATALOAD PUSH2 0x1256 DUP2 PUSH2 0x11EE JUMP JUMPDEST PUSH1 0x20 DUP2 ADD PUSH2 0x10C2 DUP3 DUP5 PUSH2 0x112B JUMP JUMPDEST PUSH4 0x4E487B71 PUSH1 0xE0 SHL PUSH1 0x0 MSTORE PUSH1 0x11 PUSH1 0x4 MSTORE PUSH1 0x24 PUSH1 0x0 REVERT JUMPDEST DUP2 DUP2 SUB DUP2 DUP2 GT ISZERO PUSH2 0x10C2 JUMPI PUSH2 0x10C2 PUSH2 0x1288 JUMP JUMPDEST DUP1 DUP3 ADD DUP1 DUP3 GT ISZERO PUSH2 0x10C2 JUMPI PUSH2 0x10C2 PUSH2 0x1288 JUMP JUMPDEST DUP1 DUP3 MUL DUP2 ISZERO DUP3 DUP3 DIV DUP5 EQ OR PUSH2 0x10C2 JUMPI PUSH2 0x10C2 PUSH2 0x1288 JUMP JUMPDEST PUSH1 0x0 DUP3 PUSH2 0x12F8 JUMPI PUSH4 0x4E487B71 PUSH1 0xE0 SHL PUSH1 0x0 MSTORE PUSH1 0x12 PUSH1 0x4 MSTORE PUSH1 0x24 PUSH1 0x0 REVERT JUMPDEST POP DIV SWAP1 JUMP JUMPDEST PUSH1 0x80 DUP2 ADD PUSH2 0x130B DUP3 DUP8 PUSH2 0x112B JUMP JUMPDEST PUSH2 0x1318 PUSH1 0x20 DUP4 ADD DUP7 PUSH2 0x112B JUMP JUMPDEST PUSH1 0x40 DUP3 ADD SWAP4 SWAP1 SWAP4 MSTORE PUSH1 0x60 ADD MSTORE SWAP3 SWAP2 POP POP JUMP INVALID LOG2 PUSH5 0x6970667358 0x22 SLT KECCAK256 0x2E PUSH26 0x832A08BCDAF1F3EA380F4997743E26C2D21A038F7E49F5F6EF11 XOR PUSH26 0x69564736F6C6343000818003300000000000000000000000000 "},"methodIdentifiers":{"FEE_BPS()":"bf333f2c","cancel(bytes32)":"c4d252f5","claimTimeout(bytes32)":"aaa5a02a","defaultTimeout()":"09f3f566","feePool()":"ae2e933b","getGame(bytes32)":"73931bbf","maxBet()":"2e5b2168","minBet()":"9619367d","owner()":"8da5cb5b","renounceOwnership()":"715018a6","setDefaultTimeout(uint40)":"f1056535","submitMove(bytes32,uint8)":"3a302eed","transferOwnership(address)":"f2fde38b","withdrawFees(address,uint256)":"ad3b1b47"}}}}}